:020000040000FA
:040000008A012B281E
:08000800A000030E8301A1001A
:1000100087170C1C262840308E009C308F00A80BC0
:100020001328C830A80096302802031C1A28013073
:10003000A5001B28A501A70B21281930A700013016
:10004000A606101483160C1483120C10210E8300C4
:10005000A00E200E090083168101811307308C0148
:100060008D01FF3086008701880189018113831289
:100070000C3090009010101483160C1483120B1780
:100080008B1707140710871487100715071187159A
:100090008711071607128716871207170713871786
:1000A0008713A901A9142915A9152916290887015B
:1000B00087130608FF3AA200AC010830AB00220803
:1000C0002905AA002A18AC0AAA0CAB0B62282C0836
:1000D000013C03186E282908FF3AA20522188E2831
:1000E000A21A8028A2199628221A9628A2189128C6
:1000F000221991281930A700C830A8008701582874
:10010000A219A528221AAA28A2189B282219A028D9
:100110001930A700C830A800870158281C30870074
:100120005828003025181C30870058280030261821
:100130001C308700582808302518143887005828A4
:100140000430251818388700582808302618143825
:0E0150008700582804302618183887005828D1
:02400E00313C43
:00000001FF
