:020000040000FA
:1000000000008A110A129F299F30030583120313EF
:10001000AC0083120313B700B801831203138B01E2
:1000200080308316031381008C018D018501FF3020
:100030008600870105158316031381130C30831284
:10004000031390000D3090000130831603138C00D1
:1000500001308312031387000230870004308700C9
:10006000083087001030870020308700403087003C
:1000700080308700870185018312031306088312ED
:100080000313AC00AD012C0983120313BF008312CC
:1000900003132D0983120313C0003F1C54280C3096
:1000A000831203138700692983120313BF1EE128FB
:1000B000831203133D08831203133F0583120313B6
:1000C000AC00831203133E0883120313400583120E
:1000D0000313AD002C08023A031D86282D08003AB0
:1000E000031D8628831203133308340403197D2863
:1000F000143083120313AE00802883120313AE0161
:10010000831203132E088312031387008312031331
:100110002C08043A031DA4282D08003A031DA42826
:10012000831203133308340403199B2818308312F5
:100130000313AE009E2883120313AE018312031330
:100140002E08831203138700831203132C08083A26
:10015000031DC2282D08003A031DC2288312031371
:10016000350836040319B928143083120313AE007E
:10017000BC2883120313AE01831203132E088312CB
:1001800003138700831203132C08103A031D6929F7
:100190002D08003A031D692983120313350836041C
:1001A0000319D728183083120313AC00DA288312FE
:1001B0000313AC01831203132C088312031387006B
:1001C0006929831203133D08831203133F05831229
:1001D0000313AC00831203133E088312031340057C
:1001E00083120313AD002C08023A031D0F292D08BA
:1001F000003A031D0F298312031333083404031933
:1002000006291C3083120313AE000929831203133D
:10021000AE01831203132E08831203138700831287
:1002200003132C08043A031D2D292D08003A031D41
:100230002D298312031333083404031924291C3095
:1002400083120313AE00272983120313AE01831216
:1002500003132E08831203138700831203132C0841
:10026000083A031D4B292D08003A031D4B29831220
:10027000031335083604031942291C308312031373
:10028000AE00452983120313AE01831203132E0817
:10029000831203138700831203132C08103A031DE3
:1002A00069292D08003A031D6929831203133508B3
:1002B0003604031960291C3083120313AC00632930
:1002C00083120313AC01831203132C08831203134C
:1002D0008700831203133D08831203133F05831223
:1002E0000313AC00831203133E088312031340056B
:1002F00083120313AD002C04031D8B29C830831215
:100300000313AF00B001193083120313B100B2011F
:10031000831203138701FF3083120313C107031CE9
:10032000C20341084204031D3C28F030C1000730DD
:10033000C200F0308312031385003C2808006F30A0
:10034000FE000230FF0080308A110A124E228A110C
:100350000A1283120313A1007F08A0007130A200CB
:100360000230A300831203132008A4002108A50073
:10037000FF30A007031CA103240825040319372A12
:1003800004302207A400A501A50D2308A507240811
:10039000FE002508FF0080308A110A124E228A11C1
:1003A0000A1283120313A7007F08A6002208FE008A
:1003B0002308FF0080308A110A124E228A110A1285
:1003C00083120313A900A5007F08A800A40002302F
:1003D0002207A400A501A50D2308A5072408FE00F7
:1003E0002508FF0080308A110A124E228A110A1253
:1003F00083120313A500AB007F08A400AA00831298
:1004000003132608AA002708AB00FF30A607031C29
:10041000A7032A082B040319302A2808FE002908FC
:10042000FF0080308A110A123B228A110A128312BD
:100430000313AA0024088312031384008313831276
:100440000313251883172A088312031380008312CD
:100450000313A80A0319A90AA40A0319A50AFF2964
:10046000063083120313A2070318A30AB2298A11C4
:100470000A1204280800003A0319422A803A031994
:10048000492A00347E08840083137F1883170008EC
:1004900008007F088A007E0882000800003A0319DD
:1004A000562A803A0319602AFF0100347E0884002E
:1004B00083137F1883170008FF00840A00080800D0
:1004C0008A110A124922FD00FE0FFF03FF0A8A115A
:1004D0000A124922FC007D08FF007C080800043451
:1004E0000034893402343D340034023400348B3417
:1004F00002343F340034023400348D340234413449
:100500000034023400348F34023443340034013474
:1005100000341E340034003400343F3400340034DE
:02400E003A3D39
:00000001FF
